S01C000073656D65737465722064617920636F756E7465722E7372656322
S11300000C942A000C9447000C9447000C9447006D
S11300100C9447000C9447000C9447000C94470040
S11300200C9447000C9447000C9447000C94470030
S11300300C9447000C9447000C9447000C94470020
S11300400C9447000C9447000C9447000C94470010
S11300500C94470011241FBECFE5D8E0DEBFCDBF0E
S113006010E0A0E6B0E0ECE8F5E002C005900D92E7
S1130070A838B107D9F720E0A8E8B0E001C01D9284
S1130080AC38B207E1F70E94CB010C94C4020C9483
S11300900000E199FECF9FBB8EBB6DBBE29AE19A53
S11300A00895E199FECF9FBB8EBBE09A8DB308956E
S11300B08FEF88BB12BA0895CF93DF930E94580044
S11300C08091880090918900CAE0D0E0BE010E942E
S11300D09C02FB01EE0FFF1FE659FF4F808188BB96
S11300E081E082BB85ED96E00197F1F700C0000046
S11300F00E9458008091880090918900BE010E945E
S11301009C02FC01EE0FFF1FE659FF4F808188BB64
S113011082E082BB85ED96E00197F1F700C0000014
S11301200E945800E0918A00F0918B00EE0FFF1FAF
S1130130E258FF4F808188BB84E082BB85ED96E066
S11301400197F1F700C00000DF91CF910895DF928D
S1130150EF92FF920F931F93CF93DF930E94580067
S113016012BA18BA2FE986E891E0215080409040F5
S1130170E1F700C000000E94580084E082BB809137
S1130180600088BBEFE9F6E821E0E150F040204050
S1130190E1F700C00000C2E3D0E06894EE24E2F886
S11301A000E610E06894FF24F1F80E945800E2BAD7
S11301B0F801828188BB81EE94E00197F1F700C0D9
S11301C000000E945800F2BAF801808188BB81EED9
S11301D094E00197F1F700C00000219731F701E2A4
S11301E010E06894DD24D2F8C0E6D0E06894EE24F0
S11301F0E1F8FF24F3940E945800D2BA8C8188BBA2
S1130200E1EEF4E03197F1F700C000000E945800DD
S1130210E2BA8A8188BB81EE94E00197F1F700C0CD
S113022000000E945800F2BA888188BBE1EEF4E035
S11302303197F1F700C0000001501109E1F601E225
S113024010E06894DD24D2F8C0E6D0E06894EE248F
S1130250E1F8FF24F3940E945800D2BA8E8188BB3F
S113026081EE94E00197F1F700C000000E9458006D
S1130270E2BA8C8188BBE1EEF4E03197F1F700C07B
S113028000000E945800F2BA8A8188BB81EE94E093
S11302900197F1F700C0000001501109E1F601E2F5
S11302A010E06894DD24D2F8C0E6D0E06894EE242F
S11302B0E1F8FF24F3940E945800D2BA888588BBE1
S11302C0E1EEF4E03197F1F700C000000E9458001D
S11302D0E2BA8E8188BB81EE94E00197F1F700C009
S11302E000000E945800F2BA8C8188BBE1EEF4E071
S11302F03197F1F700C0000001501109E1F6C2E3A3
S1130300D0E06894EE24E1F800E610E0FF24F394D2
S11303100E945800E2BAF801808588BB81EE94E01F
S11303200197F1F700C000000E945800F2BAF801EA
S1130330868188BB81EE94E00197F1F700C000004C
S1130340219731F7C4E6D0E0FF24F39400E610E0EF
S11303500E945800F2BAF801808588BB81EE94E0CF
S11303600197F1F700C00000219791F70E9458000F
S113037012BA18BA9FE9E6E8F1E09150E040F04083
S1130380E1F700C00000DF91CF911F910F91FF9022
S1130390EF90DF90089584B7806884BF84B7806845
S11303A084BF8FEF87BB81BB1ABA84E690E00E94BA
S11303B0510090E0909389008093880085E690E056
S11303C00E94510090E090938B0080938A002091CA
S11303D08800309189002436310534F021E030E082
S11303E03093890020938800059724F010928B00A5
S11303F010928A000E94A700412C512C0F2EF8E87D
S1130400EF2EF0E0FF2EF02D0AE810E00F2EFCE0B6
S11304106F2EF02D712C6894AA24A2F8B12CCC2450
S1130420C394D12CC42DD52D862C972C0E945C000E
S1130430F1E08F1A9108D1F7C89B18C0C99B16C068
S11304400E94A700D0928900C092880040928A003E
S113045050928B0061E084E690E00E944900F8012C
S1130460608185E690E00E9449005DC0C89B27C07A
S1130470C99925C080918A0090918B000196909330
S11304808B0080938A0005976CF08091880090918E
S113049089000196909389008093880040928A0095
S11304A050928B00F701608184E690E00E9449003D
S11304B0F801608185E690E00E94490034C0C99B40
S11304C032C0C89930C080918A0090918B00019706
S11304D090938B0080938A009923CCF480918800B8
S11304E090918900823091054CF4D0928900C09299
S11304F0880040928A0050928B0009C00197909323
S1130500890080938800B0928B00A0928A00F70142
S1130510608184E690E00E944900F801608185E6EC
S113052090E00E9449002196C034F8E3DF0709F007
S11305307BCF0E94A70076CF97FB072E16F400947A
S113054007D077FD09D00E94B00207FC05D03EF425
S1130550909581959F4F0895709561957F4F08956B
S1130560AA1BBB1B51E107C0AA1FBB1FA617B707D5
S113057010F0A61BB70B881F991F5A95A9F78095F1
S10F05809095BC01CD010895F894FFCFC4
S113058CAF008300F900C000F900C000F900A4001A
S113059CB000990092008200F8008000900088005E
S10B05AC8300C600A1008600D3
S9030000FC
